S00F0000454C45444943452E737265632A
S11300000EC020C01FC01EC01DC01CC01BC01AC013
S113001062C018C017C016C015C014C013C0112484
S11300201FBECFE5D2E0DEBFCDBF10E0A0E6B0E05A
S1130030E8E4F3E002C005900D92A436B107D9F7C5
S113004002D080C1DDCF8FEF87BB88BB2FE78AE169
S113005096E0215080409040E1F700C000008BE31F
S113006087BB18BA88EF86B913B881E087B984E0F2
S113007084BB789485B7877E85BF85B7806285BF4A
S1130080889585B78F7D85BFF8CF8230910599F02B
S11300902CF4009751F0019759F019C08430910560
S11300A081F064F0059781F012C088E088BB10C02D
S11300B081E088BB0DC088E188BB0AC081E188BBB0
S11300C007C089E188BB04C083E188BB01C018BABA
S11300D080E090E008951F920F920FB60F921124C2
S11300E0EF92FF920F931F932F933F934F935F933E
S11300F06F937F938F939F93AF93BF93CF93DF932C
S1130100EF93FF9384B195B18F3F910569F164F149
S1130110C4E1D0E006E010E06894EE24E1F8F12CAC
S1130120ABD0B80138D08F3F2FEF920711F48E2D4A
S11301309F2DE3EDF0E33197F1F700C00000A5DF58
S11301408BE792E90197F1F700C00000219741F78E
S11301509FE5EEEAFAE09150E040F040E1F700C09C
S1130160000087E090E091DFFF91EF91DF91CF9164
S1130170BF91AF919F918F917F916F915F914F91BB
S11301803F912F911F910F91FF90EF900F900FBE11
S11301900F901F90189597FB072E16F4009406D025
S11301A077FD08D00BD007FC05D03EF490958195DF
S11301B09F4F0895709561957F4F0895AA1BBB1BAF
S11301C051E107C0AA1FBB1FA617B70710F0A61B53
S11301D0B70B881F991F5A95A9F780959095BC0174
S11301E0CD0108958F929F92AF92BF92CF92DF92EA
S11301F0EF92FF92CF93DF93EC01688179818A813A
S11302009B81611571058105910521F464E279ED05
S11302108BE597E02DE133EF41E050E055D0490103
S11302205A0127EA31E440E050E035D06B017C010B
S11302302CEE34EF4FEF5FEFC501B4012CD0DC019D
S1130240CB018C0D9D1DAE1DBF1DB7FF03C00197D3
S1130250A109B04888839983AA83BB839F77DF91E0
S1130260CF91FF90EF90DF90CF90BF90AF909F9091
S11302708F900895B7DF089580E690E0B3DF089586
S1130280A0E0B0E08093600090936100A0936200CE
S1130290B09363000895EE27FF27AA27BB2708C061
S11302A0A20FB31FE41FF51F220F331F441F551F56
S11302B0969587957795679598F37040A9F7009779
S11302C099F7BD01CF010895052E97FB16F400940C
S11302D00FD057FD05D014D007FC02D046F408C057
S11302E050954095309521953F4F4F4F5F4F08955E
S11302F090958095709561957F4F8F4F9F4F08958E
S1130300A1E21A2EAA1BBB1BFD010DC0AA1FBB1F15
S1130310EE1FFF1FA217B307E407F50720F0A21B87
S1130320B30BE40BF50B661F771F881F991F1A94F4
S113033069F760957095809590959B01AC01BD011E
S10B0340CF010895F894FFCFEA
S107034801000000AC
S9030000FC
